{
  "_format": "hh-sol-artifact-1",
  "contractName": "TokenBuildr",
  "sourceName": "contracts/TokenBuildr.sol",
  "abi": [
    {
      "inputs": [],
      "stateMutability": "nonpayable",
      "type": "constructor"
    },
    {
      "anonymous": false,
      "inputs": [
        {
          "indexed": true,
          "internalType": "address",
          "name": "owner",
          "type": "address"
        },
        {
          "indexed": false,
          "internalType": "address",
          "name": "contractAddress",
          "type": "address"
        },
        {
          "indexed": true,
          "internalType": "string",
          "name": "name",
          "type": "string"
        },
        {
          "indexed": false,
          "internalType": "string",
          "name": "symbol",
          "type": "string"
        }
      ],
      "name": "TokenCreated",
      "type": "event"
    },
    {
      "inputs": [
        {
          "internalType": "string",
          "name": "name",
          "type": "string"
        },
        {
          "internalType": "string",
          "name": "symbol",
          "type": "string"
        },
        {
          "internalType": "uint256",
          "name": "initialSupply",
          "type": "uint256"
        }
      ],
      "name": "deployToken",
      "outputs": [],
      "stateMutability": "nonpayable",
      "type": "function"
    },
    {
      "inputs": [
        {
          "internalType": "string",
          "name": "name",
          "type": "string"
        }
      ],
      "name": "getTokenAddress",
      "outputs": [
        {
          "internalType": "address",
          "name": "",
          "type": "address"
        }
      ],
      "stateMutability": "view",
      "type": "function"
    },
    {
      "inputs": [
        {
          "internalType": "string",
          "name": "name",
          "type": "string"
        }
      ],
      "name": "getTokenOwner",
      "outputs": [
        {
          "internalType": "address",
          "name": "",
          "type": "address"
        }
      ],
      "stateMutability": "view",
      "type": "function"
    },
    {
      "inputs": [
        {
          "internalType": "address",
          "name": "owner",
          "type": "address"
        }
      ],
      "name": "getTokensByOwner",
      "outputs": [
        {
          "internalType": "address[]",
          "name": "",
          "type": "address[]"
        }
      ],
      "stateMutability": "view",
      "type": "function"
    },
    {
      "inputs": [
        {
          "internalType": "string",
          "name": "",
          "type": "string"
        }
      ],
      "name": "tokens",
      "outputs": [
        {
          "internalType": "uint256",
          "name": "initialSupply",
          "type": "uint256"
        },
        {
          "internalType": "address",
          "name": "owner",
          "type": "address"
        },
        {
          "internalType": "address",
          "name": "contractAddress",
          "type": "address"
        },
        {
          "internalType": "string",
          "name": "symbol",
          "type": "string"
        }
      ],
      "stateMutability": "view",
      "type": "function"
    }
  ],
  "bytecode": "0x608060405234801561001057600080fd5b50600080546001600160a01b031916331790556117aa806100326000396000f3fe60806040523480156200001157600080fd5b50600436106200005e5760003560e01c806304c2320b14620000635780632709e3ce14620000955780633a93babb14620000c557806340398d6714620000de578063c40912361462000104575b600080fd5b6200007a6200007436600462000599565b6200011b565b6040516200008c94939291906200062e565b60405180910390f35b620000ac620000a636600462000599565b620001f1565b6040516001600160a01b0390911681526020016200008c565b620000dc620000d63660046200066c565b62000227565b005b620000f5620000ef366004620006e0565b62000432565b6040516200008c919062000712565b620000ac6200011536600462000599565b620004aa565b805160208183018101805160018083529383019290940191909120929052815490820154600283015460038401805493946001600160a01b03938416949390921692620001689062000761565b80601f0160208091040260200160405190810160405280929190818152602001828054620001969062000761565b8015620001e75780601f10620001bb57610100808354040283529160200191620001e7565b820191906000526020600020905b815481529060010190602001808311620001c957829003601f168201915b5050505050905084565b60006001826040516200020591906200079d565b908152604051908190036020019020600101546001600160a01b031692915050565b60006001600160a01b03166001846040516200024491906200079d565b908152604051908190036020019020600101546001600160a01b031614620002a95760405162461bcd60e51b8152602060048201526014602482015273546f6b656e20616c72656164792065786973747360601b604482015260640160405180910390fd5b600083838333604051620002bd90620004e0565b620002cc9493929190620007bb565b604051809103906000f080158015620002e9573d6000803e3d6000fd5b5090506040518060800160405280838152602001336001600160a01b03168152602001826001600160a01b03168152602001848152506001856040516200033191906200079d565b908152604080516020928190038301902083518155918301516001830180546001600160a01b03199081166001600160a01b03938416179091559184015160028401805490931691161790556060820151600382019062000393908262000859565b50503360009081526002602090815260408083208054600181018255908452919092200180546001600160a01b0319166001600160a01b03851617905551620003df915085906200079d565b6040518091039020336001600160a01b03167fd5d05a8421149c74fd223cfc823befb883babf9bf0b0e4d6bf9c8fdb70e59bb483866040516200042492919062000926565b60405180910390a350505050565b6001600160a01b0381166000908152600260209081526040918290208054835181840281018401909452808452606093928301828280156200049e57602002820191906000526020600020905b81546001600160a01b031681526001909101906020018083116200047f575b50505050509050919050565b6000600182604051620004be91906200079d565b908152604051908190036020019020600201546001600160a01b031692915050565b610e28806200094d83390190565b634e487b7160e01b600052604160045260246000fd5b600082601f8301126200051657600080fd5b813567ffffffffffffffff80821115620005345762000534620004ee565b604051601f8301601f19908116603f011681019082821181831017156200055f576200055f620004ee565b816040528381528660208588010111156200057957600080fd5b836020870160208301376000602085830101528094505050505092915050565b600060208284031215620005ac57600080fd5b813567ffffffffffffffff811115620005c457600080fd5b620005d28482850162000504565b949350505050565b60005b83811015620005f7578181015183820152602001620005dd565b50506000910152565b600081518084526200061a816020860160208601620005da565b601f01601f19169290920160200192915050565b8481526001600160a01b03848116602083015283166040820152608060608201819052600090620006629083018462000600565b9695505050505050565b6000806000606084860312156200068257600080fd5b833567ffffffffffffffff808211156200069b57600080fd5b620006a98783880162000504565b94506020860135915080821115620006c057600080fd5b50620006cf8682870162000504565b925050604084013590509250925092565b600060208284031215620006f357600080fd5b81356001600160a01b03811681146200070b57600080fd5b9392505050565b6020808252825182820181905260009190848201906040850190845b81811015620007555783516001600160a01b0316835292840192918401916001016200072e565b50909695505050505050565b600181811c908216806200077657607f821691505b6020821081036200079757634e487b7160e01b600052602260045260246000fd5b50919050565b60008251620007b1818460208701620005da565b9190910192915050565b608081526000620007d0608083018762000600565b8281036020840152620007e4818762000600565b604084019590955250506001600160a01b039190911660609091015292915050565b601f8211156200085457600081815260208120601f850160051c810160208610156200082f5750805b601f850160051c820191505b8181101562000850578281556001016200083b565b5050505b505050565b815167ffffffffffffffff811115620008765762000876620004ee565b6200088e8162000887845462000761565b8462000806565b602080601f831160018114620008c65760008415620008ad5750858301515b600019600386901b1c1916600185901b17855562000850565b600085815260208120601f198616915b82811015620008f757888601518255948401946001909101908401620008d6565b5085821015620009165787850151600019600388901b60f8161c191681555b5050505050600190811b01905550565b6001600160a01b0383168152604060208201819052600090620005d2908301846200060056fe60806040523480156200001157600080fd5b5060405162000e2838038062000e28833981016040819052620000349162000222565b8383600362000044838262000345565b50600462000053828262000345565b5050506200006881836200009260201b60201c565b600580546001600160a01b0319166001600160a01b03929092169190911790555062000439915050565b6001600160a01b038216620000ed5760405162461bcd60e51b815260206004820152601f60248201527f45524332303a206d696e7420746f20746865207a65726f206164647265737300604482015260640160405180910390fd5b806002600082825462000101919062000411565b90915550506001600160a01b038216600081815260208181526040808320805486019055518481527fddf252ad1be2c89b69c2b068fc378daa952ba7f163c4a11628f55a4df523b3ef910160405180910390a35050565b505050565b634e487b7160e01b600052604160045260246000fd5b600082601f8301126200018557600080fd5b81516001600160401b0380821115620001a257620001a26200015d565b604051601f8301601f19908116603f01168101908282118183101715620001cd57620001cd6200015d565b81604052838152602092508683858801011115620001ea57600080fd5b600091505b838210156200020e5785820183015181830184015290820190620001ef565b600093810190920192909252949350505050565b600080600080608085870312156200023957600080fd5b84516001600160401b03808211156200025157600080fd5b6200025f8883890162000173565b955060208701519150808211156200027657600080fd5b50620002858782880162000173565b60408701516060880151919550935090506001600160a01b0381168114620002ac57600080fd5b939692955090935050565b600181811c90821680620002cc57607f821691505b602082108103620002ed57634e487b7160e01b600052602260045260246000fd5b50919050565b601f8211156200015857600081815260208120601f850160051c810160208610156200031c5750805b601f850160051c820191505b818110156200033d5782815560010162000328565b505050505050565b81516001600160401b038111156200036157620003616200015d565b6200037981620003728454620002b7565b84620002f3565b602080601f831160018114620003b15760008415620003985750858301515b600019600386901b1c1916600185901b1785556200033d565b600085815260208120601f198616915b82811015620003e257888601518255948401946001909101908401620003c1565b5085821015620004015787850151600019600388901b60f8161c191681555b5050505050600190811b01905550565b808201808211156200043357634e487b7160e01b600052601160045260246000fd5b92915050565b6109df80620004496000396000f3fe608060405234801561001057600080fd5b50600436106100cf5760003560e01c806370a082311161008c5780639883566e116100665780639883566e146101b8578063a457c2d7146101cd578063a9059cbb146101e0578063dd62ed3e146101f357600080fd5b806370a082311461015c5780638da5cb5b1461018557806395d89b41146101b057600080fd5b806306fdde03146100d4578063095ea7b3146100f257806318160ddd1461011557806323b872dd14610127578063313ce5671461013a5780633950935114610149575b600080fd5b6100dc610206565b6040516100e99190610829565b60405180910390f35b610105610100366004610893565b610298565b60405190151581526020016100e9565b6002545b6040519081526020016100e9565b6101056101353660046108bd565b6102b2565b604051601281526020016100e9565b610105610157366004610893565b6102d6565b61011961016a3660046108f9565b6001600160a01b031660009081526020819052604090205490565b600554610198906001600160a01b031681565b6040516001600160a01b0390911681526020016100e9565b6100dc6102f8565b6101cb6101c6366004610893565b610307565b005b6101056101db366004610893565b610374565b6101056101ee366004610893565b6103ef565b61011961020136600461091b565b6103fd565b6060600380546102159061094e565b80601f01602080910402602001604051908101604052809291908181526020018280546102419061094e565b801561028e5780601f106102635761010080835404028352916020019161028e565b820191906000526020600020905b81548152906001019060200180831161027157829003601f168201915b5050505050905090565b6000336102a6818585610428565b60019150505b92915050565b6000336102c085828561054c565b6102cb8585856105c6565b506001949350505050565b6000336102a68185856102e983836103fd565b6102f39190610988565b610428565b6060600480546102159061094e565b6005546001600160a01b031633146103665760405162461bcd60e51b815260206004820152601760248201527f43616c6c6572206973206e6f7420746865206f776e657200000000000000000060448201526064015b60405180910390fd5b610370828261076a565b5050565b6000338161038282866103fd565b9050838110156103e25760405162461bcd60e51b815260206004820152602560248201527f45524332303a2064656372656173656420616c6c6f77616e63652062656c6f77604482015264207a65726f60d81b606482015260840161035d565b6102cb8286868403610428565b6000336102a68185856105c6565b6001600160a01b03918216600090815260016020908152604080832093909416825291909152205490565b6001600160a01b03831661048a5760405162461bcd60e51b8152602060048201526024808201527f45524332303a20617070726f76652066726f6d20746865207a65726f206164646044820152637265737360e01b606482015260840161035d565b6001600160a01b0382166104eb5760405162461bcd60e51b815260206004820152602260248201527f45524332303a20617070726f766520746f20746865207a65726f206164647265604482015261737360f01b606482015260840161035d565b6001600160a01b0383811660008181526001602090815260408083209487168084529482529182902085905590518481527f8c5be1e5ebec7d5bd14f71427d1e84f3dd0314c0f7b2291e5b200ac8c7c3b925910160405180910390a3505050565b600061055884846103fd565b905060001981146105c057818110156105b35760405162461bcd60e51b815260206004820152601d60248201527f45524332303a20696e73756666696369656e7420616c6c6f77616e6365000000604482015260640161035d565b6105c08484848403610428565b50505050565b6001600160a01b03831661062a5760405162461bcd60e51b815260206004820152602560248201527f45524332303a207472616e736665722066726f6d20746865207a65726f206164604482015264647265737360d81b606482015260840161035d565b6001600160a01b03821661068c5760405162461bcd60e51b815260206004820152602360248201527f45524332303a207472616e7366657220746f20746865207a65726f206164647260448201526265737360e81b606482015260840161035d565b6001600160a01b038316600090815260208190526040902054818110156107045760405162461bcd60e51b815260206004820152602660248201527f45524332303a207472616e7366657220616d6f756e7420657863656564732062604482015265616c616e636560d01b606482015260840161035d565b6001600160a01b03848116600081815260208181526040808320878703905593871680835291849020805487019055925185815290927fddf252ad1be2c89b69c2b068fc378daa952ba7f163c4a11628f55a4df523b3ef910160405180910390a36105c0565b6001600160a01b0382166107c05760405162461bcd60e51b815260206004820152601f60248201527f45524332303a206d696e7420746f20746865207a65726f206164647265737300604482015260640161035d565b80600260008282546107d29190610988565b90915550506001600160a01b038216600081815260208181526040808320805486019055518481527fddf252ad1be2c89b69c2b068fc378daa952ba7f163c4a11628f55a4df523b3ef910160405180910390a35050565b600060208083528351808285015260005b818110156108565785810183015185820160400152820161083a565b506000604082860101526040601f19601f8301168501019250505092915050565b80356001600160a01b038116811461088e57600080fd5b919050565b600080604083850312156108a657600080fd5b6108af83610877565b946020939093013593505050565b6000806000606084860312156108d257600080fd5b6108db84610877565b92506108e960208501610877565b9150604084013590509250925092565b60006020828403121561090b57600080fd5b61091482610877565b9392505050565b6000806040838503121561092e57600080fd5b61093783610877565b915061094560208401610877565b90509250929050565b600181811c9082168061096257607f821691505b60208210810361098257634e487b7160e01b600052602260045260246000fd5b50919050565b808201808211156102ac57634e487b7160e01b600052601160045260246000fdfea26469706673582212206c252912afb1d1f693c39a7b70210c42a2ff047c224ce1c9313dca5db5754b3c64736f6c63430008120033a26469706673582212203453408cdffa6926583a9786e21bb12ba34835aa7350a8bcad780a3d65c3297764736f6c63430008120033",
  "linkReferences": {},
  "deployedLinkReferences": {}
}